{
  "_format": "hh-sol-artifact-1",
  "contractName": "MaterialPoSVerification",
  "sourceName": "contracts/MaterialPoSVerification.sol",
  "address": "0xBa736552B519E2fa4788E9864EF8a78e3E012214",
  "abi": [
    {
      "inputs": [],
      "stateMutability": "nonpayable",
      "type": "constructor"
    },
    {
      "inputs": [
        {
          "internalType": "string",
          "name": "_batchID",
          "type": "string"
        },
        {
          "internalType": "string",
          "name": "_materialType",
          "type": "string"
        },
        {
          "internalType": "string",
          "name": "_supplier",
          "type": "string"
        },
        {
          "internalType": "uint256",
          "name": "_quantity",
          "type": "uint256"
        },
        {
          "internalType": "address",
          "name": "_owner",
          "type": "address"
        }
      ],
      "name": "addMaterial",
      "outputs": [],
      "stateMutability": "nonpayable",
      "type": "function"
    },
    {
      "inputs": [
        {
          "internalType": "string",
          "name": "_batchID",
          "type": "string"
        }
      ],
      "name": "disputeMaterial",
      "outputs": [],
      "stateMutability": "nonpayable",
      "type": "function"
    },
    {
      "inputs": [
        {
          "internalType": "string",
          "name": "",
          "type": "string"
        }
      ],
      "name": "materials",
      "outputs": [
        {
          "internalType": "string",
          "name": "batchID",
          "type": "string"
        },
        {
          "internalType": "string",
          "name": "materialType",
          "type": "string"
        },
        {
          "internalType": "string",
          "name": "supplier",
          "type": "string"
        },
        {
          "internalType": "uint256",
          "name": "quantity",
          "type": "uint256"
        },
        {
          "internalType": "address",
          "name": "owner",
          "type": "address"
        },
        {
          "internalType": "bool",
          "name": "qualityChecked",
          "type": "bool"
        },
        {
          "internalType": "bool",
          "name": "pass",
          "type": "bool"
        },
        {
          "internalType": "uint256",
          "name": "stake",
          "type": "uint256"
        }
      ],
      "stateMutability": "view",
      "type": "function"
    },
    {
      "inputs": [],
      "name": "minimumStake",
      "outputs": [
        {
          "internalType": "uint256",
          "name": "",
          "type": "uint256"
        }
      ],
      "stateMutability": "view",
      "type": "function"
    },
    {
      "inputs": [],
      "name": "penalty",
      "outputs": [
        {
          "internalType": "uint256",
          "name": "",
          "type": "uint256"
        }
      ],
      "stateMutability": "view",
      "type": "function"
    },
    {
      "inputs": [
        {
          "internalType": "string",
          "name": "_batchID",
          "type": "string"
        },
        {
          "internalType": "bool",
          "name": "approve",
          "type": "bool"
        }
      ],
      "name": "stakeAndValidate",
      "outputs": [],
      "stateMutability": "payable",
      "type": "function"
    },
    {
      "inputs": [],
      "name": "stakeThreshold",
      "outputs": [
        {
          "internalType": "uint256",
          "name": "",
          "type": "uint256"
        }
      ],
      "stateMutability": "view",
      "type": "function"
    },
    {
      "inputs": [
        {
          "internalType": "address",
          "name": "",
          "type": "address"
        }
      ],
      "name": "stakes",
      "outputs": [
        {
          "internalType": "uint256",
          "name": "",
          "type": "uint256"
        }
      ],
      "stateMutability": "view",
      "type": "function"
    },
    {
      "inputs": [],
      "name": "verifier",
      "outputs": [
        {
          "internalType": "address",
          "name": "",
          "type": "address"
        }
      ],
      "stateMutability": "view",
      "type": "function"
    },
    {
      "inputs": [
        {
          "internalType": "string",
          "name": "_batchID",
          "type": "string"
        }
      ],
      "name": "verifyMaterial",
      "outputs": [
        {
          "internalType": "string",
          "name": "materialType",
          "type": "string"
        },
        {
          "internalType": "string",
          "name": "supplier",
          "type": "string"
        },
        {
          "internalType": "uint256",
          "name": "quantity",
          "type": "uint256"
        },
        {
          "internalType": "address",
          "name": "owner",
          "type": "address"
        },
        {
          "internalType": "bool",
          "name": "qualityChecked",
          "type": "bool"
        },
        {
          "internalType": "bool",
          "name": "pass",
          "type": "bool"
        }
      ],
      "stateMutability": "view",
      "type": "function"
    }
  ],
  "bytecode": "0x6080604052670de0b6b3a76400006002556706f05b59d3b20000600355674563918244f4000060045534801561003457600080fd5b5033600560006101000a81548173ffffffffffffffffffffffffffffffffffffffff021916908373ffffffffffffffffffffffffffffffffffffffff160217905550611b01806100856000396000f3fe6080604052600436106100915760003560e01c806391347df41161005957806391347df41461016e578063abfa884b146101b2578063c9b4bfe0146101f4578063ec5ffac21461021d578063f11f77f91461024857610091565b80630edd2ffc1461009657806316934fc4146100c15780632b7ac3f3146100fe578063645eb5e11461012957806369e991c314610145575b600080fd5b3480156100a257600080fd5b506100ab610273565b6040516100b89190610e9d565b60405180910390f35b3480156100cd57600080fd5b506100e860048036038101906100e39190610f2a565b610279565b6040516100f59190610e9d565b60405180910390f35b34801561010a57600080fd5b50610113610291565b6040516101209190610f66565b60405180910390f35b610143600480360381019061013e91906110ff565b6102b7565b005b34801561015157600080fd5b5061016c6004803603810190610167919061115b565b6104bf565b005b34801561017a57600080fd5b506101956004803603810190610190919061115b565b610679565b6040516101a9989796959493929190611232565b60405180910390f35b3480156101be57600080fd5b506101d960048036038101906101d4919061115b565b6108a9565b6040516101eb969594939291906112c5565b60405180910390f35b34801561020057600080fd5b5061021b60048036038101906102169190611360565b610bdc565b005b34801561022957600080fd5b50610232610e78565b60405161023f9190610e9d565b60405180910390f35b34801561025457600080fd5b5061025d610e7e565b60405161026a9190610e9d565b60405180910390f35b60035481565b60016020528060005260406000206000915090505481565b600560009054906101000a900473ffffffffffffffffffffffffffffffffffffffff1681565b600080836040516102c8919061146b565b90815260200160405180910390209050600073ffffffffffffffffffffffffffffffffffffffff168160040160009054906101000a900473ffffffffffffffffffffffffffffffffffffffff1673ffffffffffffffffffffffffffffffffffffffff160361036b576040517f08c379a0000000000000000000000000000000000000000000000000000000008152600401610362906114ce565b60405180910390fd5b8060040160149054906101000a900460ff16156103bd576040517f08c379a00000000000000000000000000000000000000000000000000000000081526004016103b490611560565b60405180910390fd5b600254341015610402576040517f08c379a00000000000000000000000000000000000000000000000000000000081526004016103f9906115cc565b60405180910390fd5b34600160003373ffffffffffffffffffffffffffffffffffffffff1673ffffffffffffffffffffffffffffffffffffffff1681526020019081526020016000206000828254610451919061161b565b925050819055503481600501600082825461046c919061161b565b925050819055506004548160050154106104ba5760018160040160146101000a81548160ff021916908315150217905550818160040160156101000a81548160ff0219169083151502179055505b505050565b600560009054906101000a900473ffffffffffffffffffffffffffffffffffffffff1673ffffffffffffffffffffffffffffffffffffffff163373ffffffffffffffffffffffffffffffffffffffff161461054f576040517f08c379a0000000000000000000000000000000000000000000000000000000008152600401610546906116c1565b60405180910390fd5b60008082604051610560919061146b565b908152602001604051809103902090508060040160149054906101000a900460ff166105c1576040517f08c379a00000000000000000000000000000000000000000000000000000000081526004016105b89061172d565b60405180910390fd5b60008160040160156101000a81548160ff0219169083151502179055506003548160050160008282546105f4919061174d565b9250508190555060035460016000600560009054906101000a900473ffffffffffffffffffffffffffffffffffffffff1673ffffffffffffffffffffffffffffffffffffffff1673ffffffffffffffffffffffffffffffffffffffff168152602001908152602001600020600082825461066e919061161b565b925050819055505050565b6000818051602081018201805184825260208301602085012081835280955050505050506000915090508060000180546106b2906117b0565b80601f01602080910402602001604051908101604052809291908181526020018280546106de906117b0565b801561072b5780601f106107005761010080835404028352916020019161072b565b820191906000526020600020905b81548152906001019060200180831161070e57829003601f168201915b505050505090806001018054610740906117b0565b80601f016020809104026020016040519081016040528092919081815260200182805461076c906117b0565b80156107b95780601f1061078e576101008083540402835291602001916107b9565b820191906000526020600020905b81548152906001019060200180831161079c57829003601f168201915b5050505050908060020180546107ce906117b0565b80601f01602080910402602001604051908101604052809291908181526020018280546107fa906117b0565b80156108475780601f1061081c57610100808354040283529160200191610847565b820191906000526020600020905b81548152906001019060200180831161082a57829003601f168201915b5050505050908060030154908060040160009054906101000a900473ffffffffffffffffffffffffffffffffffffffff16908060040160149054906101000a900460ff16908060040160159054906101000a900460ff16908060050154905088565b606080600080600080600080886040516108c3919061146b565b9081526020016040518091039020604051806101000160405290816000820180546108ed906117b0565b80601f0160208091040260200160405190810160405280929190818152602001828054610919906117b0565b80156109665780601f1061093b57610100808354040283529160200191610966565b820191906000526020600020905b81548152906001019060200180831161094957829003601f168201915b5050505050815260200160018201805461097f906117b0565b80601f01602080910402602001604051908101604052809291908181526020018280546109ab906117b0565b80156109f85780601f106109cd576101008083540402835291602001916109f8565b820191906000526020600020905b8154815290600101906020018083116109db57829003601f168201915b50505050508152602001600282018054610a11906117b0565b80601f0160208091040260200160405190810160405280929190818152602001828054610a3d906117b0565b8015610a8a5780601f10610a5f57610100808354040283529160200191610a8a565b820191906000526020600020905b815481529060010190602001808311610a6d57829003601f168201915b50505050508152602001600382015481526020016004820160009054906101000a900473ffffffffffffffffffffffffffffffffffffffff1673ffffffffffffffffffffffffffffffffffffffff1673ffffffffffffffffffffffffffffffffffffffff1681526020016004820160149054906101000a900460ff161515151581526020016004820160159054906101000a900460ff161515151581526020016005820154815250509050600073ffffffffffffffffffffffffffffffffffffffff16816080015173ffffffffffffffffffffffffffffffffffffffff1603610ba8576040517f08c379a0000000000000000000000000000000000000000000000000000000008152600401610b9f906114ce565b60405180910390fd5b80602001518160400151826060015183608001518460a001518560c001519650965096509650965096505091939550919395565b600560009054906101000a900473ffffffffffffffffffffffffffffffffffffffff1673ffffffffffffffffffffffffffffffffffffffff163373ffffffffffffffffffffffffffffffffffffffff1614610c6c576040517f08c379a0000000000000000000000000000000000000000000000000000000008152600401610c63906116c1565b60405180910390fd5b600073ffffffffffffffffffffffffffffffffffffffff16600086604051610c94919061146b565b908152602001604051809103902060040160009054906101000a900473ffffffffffffffffffffffffffffffffffffffff1673ffffffffffffffffffffffffffffffffffffffff1614610d1c576040517f08c379a0000000000000000000000000000000000000000000000000000000008152600401610d139061182d565b60405180910390fd5b6040518061010001604052808681526020018581526020018481526020018381526020018273ffffffffffffffffffffffffffffffffffffffff1681526020016000151581526020016000151581526020016000815250600086604051610d83919061146b565b90815260200160405180910390206000820151816000019081610da691906119f9565b506020820151816001019081610dbc91906119f9565b506040820151816002019081610dd291906119f9565b506060820151816003015560808201518160040160006101000a81548173ffffffffffffffffffffffffffffffffffffffff021916908373ffffffffffffffffffffffffffffffffffffffff16021790555060a08201518160040160146101000a81548160ff02191690831515021790555060c08201518160040160156101000a81548160ff02191690831515021790555060e082015181600501559050505050505050565b60025481565b60045481565b6000819050919050565b610e9781610e84565b82525050565b6000602082019050610eb26000830184610e8e565b92915050565b6000604051905090565b600080fd5b600080fd5b600073ffffffffffffffffffffffffffffffffffffffff82169050919050565b6000610ef782610ecc565b9050919050565b610f0781610eec565b8114610f1257600080fd5b50565b600081359050610f2481610efe565b92915050565b600060208284031215610f4057610f3f610ec2565b5b6000610f4e84828501610f15565b91505092915050565b610f6081610eec565b82525050565b6000602082019050610f7b6000830184610f57565b92915050565b600080fd5b600080fd5b6000601f19601f8301169050919050565b7f4e487b7100000000000000000000000000000000000000000000000000000000600052604160045260246000fd5b610fd482610f8b565b810181811067ffffffffffffffff82111715610ff357610ff2610f9c565b5b80604052505050565b6000611006610eb8565b90506110128282610fcb565b919050565b600067ffffffffffffffff82111561103257611031610f9c565b5b61103b82610f8b565b9050602081019050919050565b82818337600083830152505050565b600061106a61106584611017565b610ffc565b90508281526020810184848401111561108657611085610f86565b5b611091848285611048565b509392505050565b600082601f8301126110ae576110ad610f81565b5b81356110be848260208601611057565b91505092915050565b60008115159050919050565b6110dc816110c7565b81146110e757600080fd5b50565b6000813590506110f9816110d3565b92915050565b6000806040838503121561111657611115610ec2565b5b600083013567ffffffffffffffff81111561113457611133610ec7565b5b61114085828601611099565b9250506020611151858286016110ea565b9150509250929050565b60006020828403121561117157611170610ec2565b5b600082013567ffffffffffffffff81111561118f5761118e610ec7565b5b61119b84828501611099565b91505092915050565b600081519050919050565b600082825260208201905092915050565b60005b838110156111de5780820151818401526020810190506111c3565b60008484015250505050565b60006111f5826111a4565b6111ff81856111af565b935061120f8185602086016111c0565b61121881610f8b565b840191505092915050565b61122c816110c7565b82525050565b600061010082019050818103600083015261124d818b6111ea565b90508181036020830152611261818a6111ea565b9050818103604083015261127581896111ea565b90506112846060830188610e8e565b6112916080830187610f57565b61129e60a0830186611223565b6112ab60c0830185611223565b6112b860e0830184610e8e565b9998505050505050505050565b600060c08201905081810360008301526112df81896111ea565b905081810360208301526112f381886111ea565b90506113026040830187610e8e565b61130f6060830186610f57565b61131c6080830185611223565b61132960a0830184611223565b979650505050505050565b61133d81610e84565b811461134857600080fd5b50565b60008135905061135a81611334565b92915050565b600080600080600060a0868803121561137c5761137b610ec2565b5b600086013567ffffffffffffffff81111561139a57611399610ec7565b5b6113a688828901611099565b955050602086013567ffffffffffffffff8111156113c7576113c6610ec7565b5b6113d388828901611099565b945050604086013567ffffffffffffffff8111156113f4576113f3610ec7565b5b61140088828901611099565b93505060606114118882890161134b565b925050608061142288828901610f15565b9150509295509295909350565b600081905092915050565b6000611445826111a4565b61144f818561142f565b935061145f8185602086016111c0565b80840191505092915050565b6000611477828461143a565b915081905092915050565b7f4d6174657269616c206e6f7420666f756e642e00000000000000000000000000600082015250565b60006114b86013836111af565b91506114c382611482565b602082019050919050565b600060208201905081810360008301526114e7816114ab565b9050919050565b7f4d6174657269616c207175616c69747920616c726561647920636865636b656460008201527f2e00000000000000000000000000000000000000000000000000000000000000602082015250565b600061154a6021836111af565b9150611555826114ee565b604082019050919050565b600060208201905081810360008301526115798161153d565b9050919050565b7f496e73756666696369656e74207374616b652e00000000000000000000000000600082015250565b60006115b66013836111af565b91506115c182611580565b602082019050919050565b600060208201905081810360008301526115e5816115a9565b9050919050565b7f4e487b7100000000000000000000000000000000000000000000000000000000600052601160045260246000fd5b600061162682610e84565b915061163183610e84565b9250828201905080821115611649576116486115ec565b5b92915050565b7f4f6e6c792076657269666965722063616e20706572666f726d2074686973206160008201527f6374696f6e2e0000000000000000000000000000000000000000000000000000602082015250565b60006116ab6026836111af565b91506116b68261164f565b604082019050919050565b600060208201905081810360008301526116da8161169e565b9050919050565b7f4d6174657269616c207175616c697479206e6f742066696e616c697a65642e00600082015250565b6000611717601f836111af565b9150611722826116e1565b602082019050919050565b600060208201905081810360008301526117468161170a565b9050919050565b600061175882610e84565b915061176383610e84565b925082820390508181111561177b5761177a6115ec565b5b92915050565b7f4e487b7100000000000000000000000000000000000000000000000000000000600052602260045260246000fd5b600060028204905060018216806117c857607f821691505b6020821081036117db576117da611781565b5b50919050565b7f4d6174657269616c20616c7265616479206578697374732e0000000000000000600082015250565b60006118176018836111af565b9150611822826117e1565b602082019050919050565b600060208201905081810360008301526118468161180a565b9050919050565b60008190508160005260206000209050919050565b60006020601f8301049050919050565b600082821b905092915050565b6000600883026118af7fffffffffffffffffffffffffffffffffffffffffffffffffffffffffffffffff82611872565b6118b98683611872565b95508019841693508086168417925050509392505050565b6000819050919050565b60006118f66118f16118ec84610e84565b6118d1565b610e84565b9050919050565b6000819050919050565b611910836118db565b61192461191c826118fd565b84845461187f565b825550505050565b600090565b61193961192c565b611944818484611907565b505050565b5b818110156119685761195d600082611931565b60018101905061194a565b5050565b601f8211156119ad5761197e8161184d565b61198784611862565b81016020851015611996578190505b6119aa6119a285611862565b830182611949565b50505b505050565b600082821c905092915050565b60006119d0600019846008026119b2565b1980831691505092915050565b60006119e983836119bf565b9150826002028217905092915050565b611a02826111a4565b67ffffffffffffffff811115611a1b57611a1a610f9c565b5b611a2582546117b0565b611a3082828561196c565b600060209050601f831160018114611a635760008415611a51578287015190505b611a5b85826119dd565b865550611ac3565b601f198416611a718661184d565b60005b82811015611a9957848901518255600182019150602085019450602081019050611a74565b86831015611ab65784890151611ab2601f8916826119bf565b8355505b6001600288020188555050505b50505050505056fea26469706673582212206a75b0dd3e2f18d5e5e46a498ca4432afcf31ccc5ff1f9f4e45f96bc49f98d4264736f6c63430008180033",
  "linkReferences": {},
  "deployedLinkReferences": {}
}