{
  "_format": "hh-sol-artifact-1",
  "contractName": "MaterialTracking",
  "sourceName": "contracts/MaterialTracking.sol",
  "address": "0x8891c42FfdF9a849f1CF4aCeC26151a8e819C808",
  "abi": [
    {
      "inputs": [],
      "stateMutability": "nonpayable",
      "type": "constructor"
    },
    {
      "anonymous": false,
      "inputs": [
        {
          "indexed": true,
          "internalType": "address",
          "name": "supplier",
          "type": "address"
        },
        {
          "indexed": true,
          "internalType": "address",
          "name": "contractor",
          "type": "address"
        },
        {
          "indexed": false,
          "internalType": "string",
          "name": "materialType",
          "type": "string"
        },
        {
          "indexed": false,
          "internalType": "uint256",
          "name": "quantity",
          "type": "uint256"
        },
        {
          "indexed": false,
          "internalType": "uint256",
          "name": "pickupTime",
          "type": "uint256"
        },
        {
          "indexed": false,
          "internalType": "uint256",
          "name": "distance",
          "type": "uint256"
        },
        {
          "indexed": false,
          "internalType": "uint256",
          "name": "price",
          "type": "uint256"
        }
      ],
      "name": "ShipmentCreated",
      "type": "event"
    },
    {
      "anonymous": false,
      "inputs": [
        {
          "indexed": true,
          "internalType": "address",
          "name": "supplier",
          "type": "address"
        },
        {
          "indexed": true,
          "internalType": "address",
          "name": "contractor",
          "type": "address"
        },
        {
          "indexed": false,
          "internalType": "uint256",
          "name": "deliveryTime",
          "type": "uint256"
        }
      ],
      "name": "ShipmentDelivered",
      "type": "event"
    },
    {
      "anonymous": false,
      "inputs": [
        {
          "indexed": true,
          "internalType": "address",
          "name": "supplier",
          "type": "address"
        },
        {
          "indexed": true,
          "internalType": "address",
          "name": "contractor",
          "type": "address"
        },
        {
          "indexed": false,
          "internalType": "uint256",
          "name": "pickupTime",
          "type": "uint256"
        }
      ],
      "name": "ShipmentInTransit",
      "type": "event"
    },
    {
      "anonymous": false,
      "inputs": [
        {
          "indexed": true,
          "internalType": "address",
          "name": "supplier",
          "type": "address"
        },
        {
          "indexed": true,
          "internalType": "address",
          "name": "contractor",
          "type": "address"
        },
        {
          "indexed": false,
          "internalType": "uint256",
          "name": "amount",
          "type": "uint256"
        }
      ],
      "name": "ShipmentPaid",
      "type": "event"
    },
    {
      "inputs": [
        {
          "internalType": "uint256",
          "name": "",
          "type": "uint256"
        }
      ],
      "name": "allShipments",
      "outputs": [
        {
          "internalType": "address",
          "name": "supplier",
          "type": "address"
        },
        {
          "internalType": "address",
          "name": "contractor",
          "type": "address"
        },
        {
          "internalType": "string",
          "name": "materialType",
          "type": "string"
        },
        {
          "internalType": "uint256",
          "name": "quantity",
          "type": "uint256"
        },
        {
          "internalType": "uint256",
          "name": "pickupTime",
          "type": "uint256"
        },
        {
          "internalType": "uint256",
          "name": "deliveryTime",
          "type": "uint256"
        },
        {
          "internalType": "uint256",
          "name": "distance",
          "type": "uint256"
        },
        {
          "internalType": "uint256",
          "name": "price",
          "type": "uint256"
        },
        {
          "internalType": "enum MaterialTracking.ShipmentStatus",
          "name": "status",
          "type": "uint8"
        },
        {
          "internalType": "bool",
          "name": "isPaid",
          "type": "bool"
        }
      ],
      "stateMutability": "view",
      "type": "function"
    },
    {
      "inputs": [
        {
          "internalType": "address",
          "name": "_supplier",
          "type": "address"
        },
        {
          "internalType": "address",
          "name": "_contractor",
          "type": "address"
        },
        {
          "internalType": "uint256",
          "name": "_index",
          "type": "uint256"
        }
      ],
      "name": "completeMaterialShipment",
      "outputs": [],
      "stateMutability": "nonpayable",
      "type": "function"
    },
    {
      "inputs": [
        {
          "internalType": "address",
          "name": "_contractor",
          "type": "address"
        },
        {
          "internalType": "string",
          "name": "_materialType",
          "type": "string"
        },
        {
          "internalType": "uint256",
          "name": "_quantity",
          "type": "uint256"
        },
        {
          "internalType": "uint256",
          "name": "_pickupTime",
          "type": "uint256"
        },
        {
          "internalType": "uint256",
          "name": "_distance",
          "type": "uint256"
        },
        {
          "internalType": "uint256",
          "name": "_price",
          "type": "uint256"
        }
      ],
      "name": "createMaterialShipment",
      "outputs": [],
      "stateMutability": "payable",
      "type": "function"
    },
    {
      "inputs": [],
      "name": "getAllMaterialTransactions",
      "outputs": [
        {
          "components": [
            {
              "internalType": "address",
              "name": "supplier",
              "type": "address"
            },
            {
              "internalType": "address",
              "name": "contractor",
              "type": "address"
            },
            {
              "internalType": "string",
              "name": "materialType",
              "type": "string"
            },
            {
              "internalType": "uint256",
              "name": "quantity",
              "type": "uint256"
            },
            {
              "internalType": "uint256",
              "name": "pickupTime",
              "type": "uint256"
            },
            {
              "internalType": "uint256",
              "name": "deliveryTime",
              "type": "uint256"
            },
            {
              "internalType": "uint256",
              "name": "distance",
              "type": "uint256"
            },
            {
              "internalType": "uint256",
              "name": "price",
              "type": "uint256"
            },
            {
              "internalType": "enum MaterialTracking.ShipmentStatus",
              "name": "status",
              "type": "uint8"
            },
            {
              "internalType": "bool",
              "name": "isPaid",
              "type": "bool"
            }
          ],
          "internalType": "struct MaterialTracking.MaterialShipment[]",
          "name": "",
          "type": "tuple[]"
        }
      ],
      "stateMutability": "view",
      "type": "function"
    },
    {
      "inputs": [
        {
          "internalType": "address",
          "name": "_supplier",
          "type": "address"
        },
        {
          "internalType": "uint256",
          "name": "_index",
          "type": "uint256"
        }
      ],
      "name": "getMaterialShipment",
      "outputs": [
        {
          "internalType": "address",
          "name": "",
          "type": "address"
        },
        {
          "internalType": "address",
          "name": "",
          "type": "address"
        },
        {
          "internalType": "string",
          "name": "",
          "type": "string"
        },
        {
          "internalType": "uint256",
          "name": "",
          "type": "uint256"
        },
        {
          "internalType": "uint256",
          "name": "",
          "type": "uint256"
        },
        {
          "internalType": "uint256",
          "name": "",
          "type": "uint256"
        },
        {
          "internalType": "uint256",
          "name": "",
          "type": "uint256"
        },
        {
          "internalType": "uint256",
          "name": "",
          "type": "uint256"
        },
        {
          "internalType": "enum MaterialTracking.ShipmentStatus",
          "name": "",
          "type": "uint8"
        },
        {
          "internalType": "bool",
          "name": "",
          "type": "bool"
        }
      ],
      "stateMutability": "view",
      "type": "function"
    },
    {
      "inputs": [
        {
          "internalType": "address",
          "name": "_supplier",
          "type": "address"
        }
      ],
      "name": "getMaterialShipmentsCount",
      "outputs": [
        {
          "internalType": "uint256",
          "name": "",
          "type": "uint256"
        }
      ],
      "stateMutability": "view",
      "type": "function"
    },
    {
      "inputs": [],
      "name": "shipmentCount",
      "outputs": [
        {
          "internalType": "uint256",
          "name": "",
          "type": "uint256"
        }
      ],
      "stateMutability": "view",
      "type": "function"
    },
    {
      "inputs": [
        {
          "internalType": "address",
          "name": "",
          "type": "address"
        },
        {
          "internalType": "uint256",
          "name": "",
          "type": "uint256"
        }
      ],
      "name": "shipments",
      "outputs": [
        {
          "internalType": "address",
          "name": "supplier",
          "type": "address"
        },
        {
          "internalType": "address",
          "name": "contractor",
          "type": "address"
        },
        {
          "internalType": "string",
          "name": "materialType",
          "type": "string"
        },
        {
          "internalType": "uint256",
          "name": "quantity",
          "type": "uint256"
        },
        {
          "internalType": "uint256",
          "name": "pickupTime",
          "type": "uint256"
        },
        {
          "internalType": "uint256",
          "name": "deliveryTime",
          "type": "uint256"
        },
        {
          "internalType": "uint256",
          "name": "distance",
          "type": "uint256"
        },
        {
          "internalType": "uint256",
          "name": "price",
          "type": "uint256"
        },
        {
          "internalType": "enum MaterialTracking.ShipmentStatus",
          "name": "status",
          "type": "uint8"
        },
        {
          "internalType": "bool",
          "name": "isPaid",
          "type": "bool"
        }
      ],
      "stateMutability": "view",
      "type": "function"
    },
    {
      "inputs": [
        {
          "internalType": "address",
          "name": "_supplier",
          "type": "address"
        },
        {
          "internalType": "address",
          "name": "_contractor",
          "type": "address"
        },
        {
          "internalType": "uint256",
          "name": "_index",
          "type": "uint256"
        }
      ],
      "name": "startMaterialShipment",
      "outputs": [],
      "stateMutability": "nonpayable",
      "type": "function"
    }
  ],
  "bytecode": "0x608060405234801561001057600080fd5b506000600181905550612196806100286000396000f3fe6080604052600436106100855760003560e01c80635667e02f116100595780635667e02f1461017e57806362e7b377146101c4578063674f3838146101e05780637f00db8d14610209578063aace20b71461023257610085565b80629f01e61461008a5780630612e03b146100d05780634496582e146101165780634f6e15a214610141575b600080fd5b34801561009657600080fd5b506100b160048036038101906100ac9190611433565b61025d565b6040516100c79a999897969594939291906115b3565b60405180910390f35b3480156100dc57600080fd5b506100f760048036038101906100f29190611656565b6104f8565b60405161010d9a999897969594939291906115b3565b60405180910390f35b34801561012257600080fd5b5061012b61063e565b60405161013891906118a5565b60405180910390f35b34801561014d57600080fd5b50610168600480360381019061016391906118c7565b610864565b60405161017591906118f4565b60405180910390f35b34801561018a57600080fd5b506101a560048036038101906101a09190611433565b6108af565b6040516101bb9a999897969594939291906115b3565b60405180910390f35b6101de60048036038101906101d99190611a44565b610a02565b005b3480156101ec57600080fd5b5061020760048036038101906102029190611aed565b610e47565b005b34801561021557600080fd5b50610230600480360381019061022b9190611aed565b61117d565b005b34801561023e57600080fd5b50610247611385565b60405161025491906118f4565b60405180910390f35b60008060606000806000806000806000806000808e73ffffffffffffffffffffffffffffffffffffffff1673ffffffffffffffffffffffffffffffffffffffff1681526020019081526020016000208c815481106102be576102bd611b40565b5b9060005260206000209060090201604051806101400160405290816000820160009054906101000a900473ffffffffffffffffffffffffffffffffffffffff1673ffffffffffffffffffffffffffffffffffffffff1673ffffffffffffffffffffffffffffffffffffffff1681526020016001820160009054906101000a900473ffffffffffffffffffffffffffffffffffffffff1673ffffffffffffffffffffffffffffffffffffffff1673ffffffffffffffffffffffffffffffffffffffff16815260200160028201805461039490611b9e565b80601f01602080910402602001604051908101604052809291908181526020018280546103c090611b9e565b801561040d5780601f106103e25761010080835404028352916020019161040d565b820191906000526020600020905b8154815290600101906020018083116103f057829003601f168201915b5050505050815260200160038201548152602001600482015481526020016005820154815260200160068201548152602001600782015481526020016008820160009054906101000a900460ff16600281111561046d5761046c611521565b5b600281111561047f5761047e611521565b5b81526020016008820160019054906101000a900460ff1615151515815250509050806000015181602001518260400151836060015184608001518560a001518660c001518760e001518861010001518961012001519a509a509a509a509a509a509a509a509a509a50509295989b9194979a5092959850565b6002818154811061050857600080fd5b90600052602060002090600902016000915090508060000160009054906101000a900473ffffffffffffffffffffffffffffffffffffffff16908060010160009054906101000a900473ffffffffffffffffffffffffffffffffffffffff169080600201805461057790611b9e565b80601f01602080910402602001604051908101604052809291908181526020018280546105a390611b9e565b80156105f05780601f106105c5576101008083540402835291602001916105f0565b820191906000526020600020905b8154815290600101906020018083116105d357829003601f168201915b5050505050908060030154908060040154908060050154908060060154908060070154908060080160009054906101000a900460ff16908060080160019054906101000a900460ff1690508a565b60606002805480602002602001604051908101604052809291908181526020016000905b8282101561085b5783829060005260206000209060090201604051806101400160405290816000820160009054906101000a900473ffffffffffffffffffffffffffffffffffffffff1673ffffffffffffffffffffffffffffffffffffffff1673ffffffffffffffffffffffffffffffffffffffff1681526020016001820160009054906101000a900473ffffffffffffffffffffffffffffffffffffffff1673ffffffffffffffffffffffffffffffffffffffff1673ffffffffffffffffffffffffffffffffffffffff16815260200160028201805461074290611b9e565b80601f016020809104026020016040519081016040528092919081815260200182805461076e90611b9e565b80156107bb5780601f10610790576101008083540402835291602001916107bb565b820191906000526020600020905b81548152906001019060200180831161079e57829003601f168201915b5050505050815260200160038201548152602001600482015481526020016005820154815260200160068201548152602001600782015481526020016008820160009054906101000a900460ff16600281111561081b5761081a611521565b5b600281111561082d5761082c611521565b5b81526020016008820160019054906101000a900460ff16151515158152505081526020019060010190610662565b50505050905090565b60008060008373ffffffffffffffffffffffffffffffffffffffff1673ffffffffffffffffffffffffffffffffffffffff168152602001908152602001600020805490509050919050565b600060205281600052604060002081815481106108cb57600080fd5b9060005260206000209060090201600091509150508060000160009054906101000a900473ffffffffffffffffffffffffffffffffffffffff16908060010160009054906101000a900473ffffffffffffffffffffffffffffffffffffffff169080600201805461093b90611b9e565b80601f016020809104026020016040519081016040528092919081815260200182805461096790611b9e565b80156109b45780601f10610989576101008083540402835291602001916109b4565b820191906000526020600020905b81548152906001019060200180831161099757829003601f168201915b5050505050908060030154908060040154908060050154908060060154908060070154908060080160009054906101000a900460ff16908060080160019054906101000a900460ff1690508a565b803414610a44576040517f08c379a0000000000000000000000000000000000000000000000000000000008152600401610a3b90611c41565b60405180910390fd5b60006040518061014001604052803373ffffffffffffffffffffffffffffffffffffffff1681526020018873ffffffffffffffffffffffffffffffffffffffff1681526020018781526020018681526020018581526020016000815260200184815260200183815260200160006002811115610ac357610ac2611521565b5b81526020016000151581525090506000803373ffffffffffffffffffffffffffffffffffffffff1673ffffffffffffffffffffffffffffffffffffffff16815260200190815260200160002081908060018154018082558091505060019003906000526020600020906009020160009091909190915060008201518160000160006101000a81548173ffffffffffffffffffffffffffffffffffffffff021916908373ffffffffffffffffffffffffffffffffffffffff16021790555060208201518160010160006101000a81548173ffffffffffffffffffffffffffffffffffffffff021916908373ffffffffffffffffffffffffffffffffffffffff1602179055506040820151816002019081610bdc9190611e0d565b50606082015181600301556080820151816004015560a0820151816005015560c0820151816006015560e082015181600701556101008201518160080160006101000a81548160ff02191690836002811115610c3b57610c3a611521565b5b02179055506101208201518160080160016101000a81548160ff021916908315150217905550505060016000815480929190610c7690611f0e565b9190505550600281908060018154018082558091505060019003906000526020600020906009020160009091909190915060008201518160000160006101000a81548173ffffffffffffffffffffffffffffffffffffffff021916908373ffffffffffffffffffffffffffffffffffffffff16021790555060208201518160010160006101000a81548173ffffffffffffffffffffffffffffffffffffffff021916908373ffffffffffffffffffffffffffffffffffffffff1602179055506040820151816002019081610d4a9190611e0d565b50606082015181600301556080820151816004015560a0820151816005015560c0820151816006015560e082015181600701556101008201518160080160006101000a81548160ff02191690836002811115610da957610da8611521565b5b02179055506101208201518160080160016101000a81548160ff02191690831515021790555050508673ffffffffffffffffffffffffffffffffffffffff163373ffffffffffffffffffffffffffffffffffffffff167f94f31295d31990c3ffdfd1488306afcefc6e436aa22cc61023b93743b1cfb7ec8888888888604051610e36959493929190611f56565b60405180910390a350505050505050565b60008060008573ffffffffffffffffffffffffffffffffffffffff1673ffffffffffffffffffffffffffffffffffffffff1681526020019081526020016000208281548110610e9957610e98611b40565b5b906000526020600020906009020190508273ffffffffffffffffffffffffffffffffffffffff168160010160009054906101000a900473ffffffffffffffffffffffffffffffffffffffff1673ffffffffffffffffffffffffffffffffffffffff1614610f3b576040517f08c379a0000000000000000000000000000000000000000000000000000000008152600401610f3290611ffc565b60405180910390fd5b60016002811115610f4f57610f4e611521565b5b8160080160009054906101000a900460ff166002811115610f7357610f72611521565b5b14610fb3576040517f08c379a0000000000000000000000000000000000000000000000000000000008152600401610faa90612068565b60405180910390fd5b8060080160019054906101000a900460ff1615611005576040517f08c379a0000000000000000000000000000000000000000000000000000000008152600401610ffc906120d4565b60405180910390fd5b60028160080160006101000a81548160ff0219169083600281111561102d5761102c611521565b5b02179055504281600501819055506000816007015490508473ffffffffffffffffffffffffffffffffffffffff166108fc829081150290604051600060405180830381858888f1935050505015801561108a573d6000803e3d6000fd5b5060018260080160016101000a81548160ff0219169083151502179055508373ffffffffffffffffffffffffffffffffffffffff168573ffffffffffffffffffffffffffffffffffffffff167f3746ccceb54f44c9b0ee0120e596168d07ec9f6ca303cfdd9810d3b2e2686a2e846005015460405161110991906118f4565b60405180910390a38373ffffffffffffffffffffffffffffffffffffffff168573ffffffffffffffffffffffffffffffffffffffff167f2b6f2473aebafaf8d0889669490135928ec4454d2e29a103fd39693bbca6aef18360405161116e91906118f4565b60405180910390a35050505050565b60008060008573ffffffffffffffffffffffffffffffffffffffff1673ffffffffffffffffffffffffffffffffffffffff16815260200190815260200160002082815481106111cf576111ce611b40565b5b906000526020600020906009020190508273ffffffffffffffffffffffffffffffffffffffff168160010160009054906101000a900473ffffffffffffffffffffffffffffffffffffffff1673ffffffffffffffffffffffffffffffffffffffff1614611271576040517f08c379a000000000000000000000000000000000000000000000000000000000815260040161126890611ffc565b60405180910390fd5b6000600281111561128557611284611521565b5b8160080160009054906101000a900460ff1660028111156112a9576112a8611521565b5b146112e9576040517f08c379a00000000000000000000000000000000000000000000000000000000081526004016112e090612140565b60405180910390fd5b60018160080160006101000a81548160ff0219169083600281111561131157611310611521565b5b02179055508273ffffffffffffffffffffffffffffffffffffffff168473ffffffffffffffffffffffffffffffffffffffff167faafab9f94340179ff9cefd29621e1772a4b8efab8023163838f1b0a8f6ce5df5836004015460405161137791906118f4565b60405180910390a350505050565b60015481565b6000604051905090565b600080fd5b600080fd5b600073ffffffffffffffffffffffffffffffffffffffff82169050919050565b60006113ca8261139f565b9050919050565b6113da816113bf565b81146113e557600080fd5b50565b6000813590506113f7816113d1565b92915050565b6000819050919050565b611410816113fd565b811461141b57600080fd5b50565b60008135905061142d81611407565b92915050565b6000806040838503121561144a57611449611395565b5b6000611458858286016113e8565b92505060206114698582860161141e565b9150509250929050565b61147c816113bf565b82525050565b600081519050919050565b600082825260208201905092915050565b60005b838110156114bc5780820151818401526020810190506114a1565b60008484015250505050565b6000601f19601f8301169050919050565b60006114e482611482565b6114ee818561148d565b93506114fe81856020860161149e565b611507816114c8565b840191505092915050565b61151b816113fd565b82525050565b7f4e487b7100000000000000000000000000000000000000000000000000000000600052602160045260246000fd5b6003811061156157611560611521565b5b50565b600081905061157282611550565b919050565b600061158282611564565b9050919050565b61159281611577565b82525050565b60008115159050919050565b6115ad81611598565b82525050565b6000610140820190506115c9600083018d611473565b6115d6602083018c611473565b81810360408301526115e8818b6114d9565b90506115f7606083018a611512565b6116046080830189611512565b61161160a0830188611512565b61161e60c0830187611512565b61162b60e0830186611512565b611639610100830185611589565b6116476101208301846115a4565b9b9a5050505050505050505050565b60006020828403121561166c5761166b611395565b5b600061167a8482850161141e565b91505092915050565b600081519050919050565b600082825260208201905092915050565b6000819050602082019050919050565b6116b8816113bf565b82525050565b600082825260208201905092915050565b60006116da82611482565b6116e481856116be565b93506116f481856020860161149e565b6116fd816114c8565b840191505092915050565b611711816113fd565b82525050565b61172081611577565b82525050565b61172f81611598565b82525050565b60006101408301600083015161174e60008601826116af565b50602083015161176160208601826116af565b506040830151848203604086015261177982826116cf565b915050606083015161178e6060860182611708565b5060808301516117a16080860182611708565b5060a08301516117b460a0860182611708565b5060c08301516117c760c0860182611708565b5060e08301516117da60e0860182611708565b506101008301516117ef610100860182611717565b50610120830151611804610120860182611726565b508091505092915050565b600061181b8383611735565b905092915050565b6000602082019050919050565b600061183b82611683565b611845818561168e565b9350836020820285016118578561169f565b8060005b858110156118935784840389528151611874858261180f565b945061187f83611823565b925060208a0199505060018101905061185b565b50829750879550505050505092915050565b600060208201905081810360008301526118bf8184611830565b905092915050565b6000602082840312156118dd576118dc611395565b5b60006118eb848285016113e8565b91505092915050565b60006020820190506119096000830184611512565b92915050565b600080fd5b600080fd5b7f4e487b7100000000000000000000000000000000000000000000000000000000600052604160045260246000fd5b611951826114c8565b810181811067ffffffffffffffff821117156119705761196f611919565b5b80604052505050565b600061198361138b565b905061198f8282611948565b919050565b600067ffffffffffffffff8211156119af576119ae611919565b5b6119b8826114c8565b9050602081019050919050565b82818337600083830152505050565b60006119e76119e284611994565b611979565b905082815260208101848484011115611a0357611a02611914565b5b611a0e8482856119c5565b509392505050565b600082601f830112611a2b57611a2a61190f565b5b8135611a3b8482602086016119d4565b91505092915050565b60008060008060008060c08789031215611a6157611a60611395565b5b6000611a6f89828a016113e8565b965050602087013567ffffffffffffffff811115611a9057611a8f61139a565b5b611a9c89828a01611a16565b9550506040611aad89828a0161141e565b9450506060611abe89828a0161141e565b9350506080611acf89828a0161141e565b92505060a0611ae089828a0161141e565b9150509295509295509295565b600080600060608486031215611b0657611b05611395565b5b6000611b14868287016113e8565b9350506020611b25868287016113e8565b9250506040611b368682870161141e565b9150509250925092565b7f4e487b7100000000000000000000000000000000000000000000000000000000600052603260045260246000fd5b7f4e487b7100000000000000000000000000000000000000000000000000000000600052602260045260246000fd5b60006002820490506001821680611bb657607f821691505b602082108103611bc957611bc8611b6f565b5b50919050565b7f5061796d656e7420616d6f756e74206d757374206d617463682074686520707260008201527f6963652e00000000000000000000000000000000000000000000000000000000602082015250565b6000611c2b60248361148d565b9150611c3682611bcf565b604082019050919050565b60006020820190508181036000830152611c5a81611c1e565b9050919050565b60008190508160005260206000209050919050565b60006020601f8301049050919050565b600082821b905092915050565b600060088302611cc37fffffffffffffffffffffffffffffffffffffffffffffffffffffffffffffffff82611c86565b611ccd8683611c86565b95508019841693508086168417925050509392505050565b6000819050919050565b6000611d0a611d05611d00846113fd565b611ce5565b6113fd565b9050919050565b6000819050919050565b611d2483611cef565b611d38611d3082611d11565b848454611c93565b825550505050565b600090565b611d4d611d40565b611d58818484611d1b565b505050565b5b81811015611d7c57611d71600082611d45565b600181019050611d5e565b5050565b601f821115611dc157611d9281611c61565b611d9b84611c76565b81016020851015611daa578190505b611dbe611db685611c76565b830182611d5d565b50505b505050565b600082821c905092915050565b6000611de460001984600802611dc6565b1980831691505092915050565b6000611dfd8383611dd3565b9150826002028217905092915050565b611e1682611482565b67ffffffffffffffff811115611e2f57611e2e611919565b5b611e398254611b9e565b611e44828285611d80565b600060209050601f831160018114611e775760008415611e65578287015190505b611e6f8582611df1565b865550611ed7565b601f198416611e8586611c61565b60005b82811015611ead57848901518255600182019150602085019450602081019050611e88565b86831015611eca5784890151611ec6601f891682611dd3565b8355505b6001600288020188555050505b505050505050565b7f4e487b7100000000000000000000000000000000000000000000000000000000600052601160045260246000fd5b6000611f19826113fd565b91507fffffffffffffffffffffffffffffffffffffffffffffffffffffffffffffffff8203611f4b57611f4a611edf565b5b600182019050919050565b600060a0820190508181036000830152611f7081886114d9565b9050611f7f6020830187611512565b611f8c6040830186611512565b611f996060830185611512565b611fa66080830184611512565b9695505050505050565b7f496e76616c696420636f6e74726163746f722e00000000000000000000000000600082015250565b6000611fe660138361148d565b9150611ff182611fb0565b602082019050919050565b6000602082019050818103600083015261201581611fd9565b9050919050565b7f536869706d656e74206973206e6f7420696e207472616e7369742e0000000000600082015250565b6000612052601b8361148d565b915061205d8261201c565b602082019050919050565b6000602082019050818103600083015261208181612045565b9050919050565b7f536869706d656e7420697320616c726561647920706169642e00000000000000600082015250565b60006120be60198361148d565b91506120c982612088565b602082019050919050565b600060208201905081810360008301526120ed816120b1565b9050919050565b7f536869706d656e7420697320616c726561647920696e207472616e7369742e00600082015250565b600061212a601f8361148d565b9150612135826120f4565b602082019050919050565b600060208201905081810360008301526121598161211d565b905091905056fea26469706673582212205bbe3ddaf924115f8e27d44b85663fc189744f905e232bf8ebcdfef4918adef964736f6c63430008180033",
  "linkReferences": {},
  "deployedLinkReferences": {}
}